:020000040800F2
:10000000000400209D0100081D030008D90200081B
:1000100019030008E501000845070008000000007A
:100020000000000000000000000000009104000833
:10003000090200080000000099030008810500087B
:10004000B7010008B7010008B7010008B7010008B0
:10005000B7010008B7010008B7010008B7010008A0
:10006000B7010008B7010008B7010008B701000890
:10007000B7010008B7010008B7010008B701000880
:10008000B7010008B7010008B7010008B701000870
:10009000B7010008B7010008B7010008B701000860
:1000A000B7010008B7010008B7010008B701000850
:1000B000B7010008ED050008B7010008B701000806
:1000C000B7010008B7010008B7010008B701000830
:1000D000B7010008B7010008B7010008B701000820
:1000E000B7010008B7010008B7010008B701000810
:1000F000B7010008B7010008B7010008B701000800
:10010000B7010008B7010008B7010008B7010008EF
:10011000B7010008B7010008B7010008B7010008DF
:10012000B7010008B7010008B7010008B7010008CF
:10013000B7010008B7010008B7010008B7010008BF
:10014000B7010008B7010008B7010008B7010008AF
:10015000B7010008B7010008B7010008B70100089F
:10016000B7010008B7010008B7010008B70100088F
:10017000B7010008B7010008B7010008B70100087F
:10018000B7010008B7010008DFF80CD000F018F83C
:100190000048004767070008000400200648804721
:1001A00006480047FEE7FEE7FEE7FEE7FEE7FEE75C
:1001B000FEE7FEE7FEE7FEE7850500088901000887
:1001C000064C074D06E0E06840F0010394E80700A4
:1001D00098471034AC42F6D3FFF7DAFF84070008E3
:1001E0009407000800BFFEE710B54021014800F069
:1001F00071F810BD0000024010B58021014800F0E8
:1002000069F810BD000002407047F0B50A460021B1
:100210000023002400BF3DE0012505FA01F3156825
:1002200005EA03049C4234D105684F000326BE4012
:10023000B543056015794E00B54006683543056045
:100240001579012D02D01579022D16D185684F0040
:100250000326BE40B543856055794E00B54086689B
:1002600035438560456801268E40B5434560456845
:1002700096798E40B6B235434560C5684F00032677
:10028000BE40B543C560D5794E00B540C66835431C
:10029000C560491C1029BFD3F0BD00001CB5012169
:1002A000022000F07BF84FF4C040009001208DF850
:1002B000040000208DF8060003208DF805000120C1
:1002C0008DF8070069460248FFF79FFF1CBD00003C
:1002D000000402400183704700BFFEE71CB5012106
:1002E000084600F05BF8C020009001208DF8040063
:1002F00000208DF806008DF8050001208DF807001C
:1003000069460448FFF781FFFFF76EFFFFF774FFB0
:100310001CBD00000000024000BFFEE77047000067
:1003200070B5002100230F22C4781CB3174C246839
:1003300004F4E064C4F5E064C4F30721C1F10404EB
:10034000E3B20A4144789C40E1B2847814402143EE
:100350000C07210E0E4C05786155047804F01F053A
:100360000124AC4005786D11AD0005F1E025C5F81C
:10037000004109E0047804F01F050124AC40054D5C
:100380000678761145F8264070BD00000CED00E0BF
:1003900000E400E080E100E07047000029B1064A77
:1003A00012680243044B1A6004E0034A1268824355
:1003B000014B1A60704700003038024029B1064AEC
:1003C00012680243044B1A6004E0034A1268824335
:1003D000014B1A60704700003438024029B1064AC8
:1003E00012680243044B1A6004E0034A1268824315
:1003F000014B1A60704700004038024030B1074995
:10040000096841F00401054A116005E003490968E3
:1004100021F00401014A11607047000000080650F5
:1004200001460020034A12680A400AB1012000E098
:10043000002070470408065001480068704700001B
:100440000808065010B500BF0120FFF7E9FF00289B
:10045000FAD0FFF7F1FF10BD10B5002401214020B4
:10046000FFF7ACFF0120FFF7C9FF01E0601C84B279
:100470000120FFF7D5FF18B942F210708442F5DB76
:1004800042F21070844201DB012010BD0020FCE725
:10049000704700000CB500200190009034480068BF
:1004A00040F480303249086000BF3148006800F4F1
:1004B000003000900198401C0190009818B90198F4
:1004C000B0F5A04FF1D12A48006800F4003010B117
:1004D0000120009001E0002000900098012846D102
:1004E00023484030006840F0805021494031086086
:1004F0002048006840F440401E4908601C4808300D
:1005000000681B49083108600846006840F4004054
:1005100008600846006840F4A05008601648091FAB
:100520000860081F006840F08070091F086000BF65
:100530000F48006800F000700028F9D040F2057004
:100540000E4908600A480830006820F00300084996
:10055000083108600846006840F00200086000BFEB
:1005600003480830006800F00C000828F8D10CBDE2
:10057000003802400070004008544007003C024030
:100580007047000010B51548006840F4700013492A
:1005900008601348006840F001001149086000201D
:1005A0000F49083108600E4800680E4908400C49A0
:1005B00008600D48091D0860081F006820F48020AD
:1005C000091F0860002006490C310860FFF762FF30
:1005D0004FF0006001498039086010BD88ED00E0EF
:1005E00000380240FFFFF6FE1030002410B5012154
:1005F000064800F04AF8012802D1FFF723FF04461D
:100600000121024800F032F810BD00000004004053
:100610007FB505460C4601210220FFF7DFFE02955B
:10062000ADF804400020ADF80600ADF80C0001A9BB
:100630000D4800F045F8012211460B4800F036F84D
:100640000121094800F015F81D208DF80000012057
:100650008DF8010003208DF8020001208DF80300C1
:100660006846FFF75DFE7FBD00040040CA4302827A
:10067000704721B1028842F00102028004E0028842
:100680004FF6FE731A400280704730B502460020D4
:1006900000230024158A05EA0103958905EA01046F
:1006A00013B10CB1012000E0002030BD1AB18389E4
:1006B0000B43838102E083898B4383817047000071
:1006C00000220288184B98420ED0184B98420BD04B
:1006D000B0F1804F08D0164B984205D0154B984288
:1006E00002D0154B984204D14FF68F731A404B88B5
:1006F0001A43124B984207D0114B984204D04FF640
:10070000FF431A400B891A4302804B68C3620B886F
:100710000385054B984202D0044B984201D18B7A55
:1007200003860123838270470000014000040140DA
:100730000004004000080040000C00400010004091
:100740000014004000BFFEE702E008C8121F08C105
:10075000002AFAD170477047002001E001C1121F42
:10076000002AFBD17047FFF7B9FDFFF797FDFFF7B0
:1007700073FE42F2CF0141F28830FFF749FF00BF1C
:10078000FEE70000940700080000002000040000BD
:0407900058070008FE
:040000050800018965
:00000001FF
