:020000040800F2
:10000000E80400209D0100089D0400085704000832
:1000100099040008E50100087B0A000800000000C0
:10002000000000000000000000000000650600085D
:10003000290200080000000019050008BD0700089B
:10004000B7010008B7010008B7010008B7010008B0
:10005000B7010008B7010008B7010008B7010008A0
:10006000B70100082B020008B7010008B70100081B
:10007000B7010008B7010008B7010008B701000880
:10008000B7010008B7010008B7010008B701000870
:10009000B7010008B7010008B7010008B701000860
:1000A000B7010008B7010008B7010008B701000850
:1000B000B7010008B7010008B7010008B701000840
:1000C000B7010008B7010008B7010008B701000830
:1000D000B7010008B7010008B701000829080008A7
:1000E000B7010008B7010008B7010008B701000810
:1000F000B7010008B7010008B7010008B701000800
:10010000B7010008B7010008B7010008B7010008EF
:10011000B7010008B7010008B7010008B7010008DF
:10012000B7010008B7010008B7010008B7010008CF
:10013000B7010008B7010008B7010008B7010008BF
:10014000B7010008B7010008B7010008B7010008AF
:10015000B7010008B7010008B7010008B70100089F
:10016000B7010008B7010008B7010008B70100088F
:10017000B7010008B7010008B7010008B70100087F
:10018000B7010008B7010008DFF80CD000F018F83C
:1001900000480047090C0008E80400200648804792
:1001A00006480047FEE7FEE7FEE7FEE7FEE7FEE75C
:1001B000FEE7FEE7FEE7FEE7C10700088901000849
:1001C000064C074D06E0E06840F0010394E80700A4
:1001D00098471034AC42F6D3FFF7DAFF180D000849
:1001E000380D000800BFFEE710B54021014800F0BF
:1001F00030F910BD0000024010B54021014800F068
:1002000026F910BD0000024010B58021014800F021
:1002100020F910BD0000024010B58021014800F017
:1002200016F910BD00000240704710B500240AE026
:10023000FFF7F2FF642000F069FCFFF7E5FF6420A0
:1002400000F064FC641C0A2CF2DB082000F028F8A3
:1002500010BD0EB50121880300F080F903210420B0
:1002600000F002FA0820009000208DF804000C2015
:100270008DF8050001208DF80600684600F016F89C
:1002800009208DF8080002208DF809008DF80A0079
:1002900001208DF80B0002A800F002F90EBD00004D
:1002A0000149086070470000143C014000212349C7
:1002B0008279002A3AD00A46126803689A430B46AC
:1002C0001A600A1D126803689A430B1D1A600279AE
:1002D00011440A6803681A430A60184A083212680F
:1002E00003689A43154B08331A601A1D1268036895
:1002F0009A43124B0C331A604279102A0ED11A1FFE
:10030000126803681A430D4B08331A601A1D1268ED
:1003100003681A43094B0C331A600DE00749427910
:1003200011440A6803681A430A6005E0027911441F
:100330000A6803689A430A6070470000003C014065
:10034000F0B50A4600210023002400BF3DE001254E
:1003500005FA01F3156805EA03049C4234D10568E7
:100360004F000326BE40B543056015794E00B540E9
:100370000668354305601579012D02D01579022DE7
:1003800016D185684F000326BE40B5438560557978
:100390004E00B540866835438560456801268E402D
:1003A000B5434560456896798E40B6B235434560A1
:1003B000C5684F000326BE40B543C560D5794E00E1
:1003C000B540C6683543C560491C1029BFD3F0BD90
:1003D0001CB50121022000F0A1F84FF4C0400090AC
:1003E00001208DF8040000208DF8060003208DF810
:1003F000050001208DF8070069460248FFF7A0FFBD
:100400001CBD000000040240F0B5002300244D078D
:10041000ED0E02FA05F3CE1000F1200555F8265036
:100420004E07F70E0F26BE40B543CF1000F1200651
:1004300046F82750CE1000F1200555F8265045EA21
:100440000304CE1000F1200545F82640F0BD41839D
:1004500070470183704700BFFEE700001CB5012113
:10046000084600F05BF8C020009001208DF80400E1
:1004700000208DF806008DF8050001208DF807009A
:1004800069460448FFF75CFFFFF7AEFEFFF7BCFECE
:100490001CBD00000000024000BFFEE770470000E6
:1004A00070B5002100230F22C4781CB3174C2468B8
:1004B00004F4E064C4F5E064C4F30721C1F104046A
:1004C000E3B20A4144789C40E1B28478144021436D
:1004D0000C07210E0E4C05786155047804F01F05B9
:1004E0000124AC4005786D11AD0005F1E025C5F89B
:1004F000004109E0047804F01F050124AC40054DDB
:100500000678761145F8264070BD00000CED00E03D
:1005100000E400E080E100E07047000029B1064AF5
:1005200012680243044B1A6004E0034A12688243D3
:10053000014B1A60704700003038024029B1064A6A
:1005400012680243044B1A6004E0034A12688243B3
:10055000014B1A60704700004038024029B1064A3A
:1005600012680243044B1A6004E0034A1268824393
:10057000014B1A607047000044380240F0B500217A
:1005800000220024022500260223324F3F6807F094
:100590000C0121B1042905D0082937D105E02E4FDF
:1005A000076036E02D4F076033E02A4F3F1F3F685A
:1005B000C7F38056274F3F1F3F6807F03F036EB1D8
:1005C000264FB7FBF3F7DFF88CC0ACF1040CDCF876
:1005D00000C0CCF3881C07FB0CF40CE01E4FB7FBEB
:1005E000F3F7DFF870C0ACF1040CDCF800C0CCF31A
:1005F000881C07FB0CF4174F3F1F3F68C7F30147E8
:100600007F1C7D00B4FBF5F7076002E0124F076026
:1006100000BF00BF0F4F3F6807F0F0010909104FFE
:100620007A5C0768D74047600A4F3F6807F4E0519B
:10063000890A0B4F7A5C4768D7408760054F3F684F
:1006400007F46041490B064F7A5C4768D740C760A2
:10065000F0BD0000083802400024F40000127A00C7
:10066000000000207047000030B500228B071C0FEF
:100670000F2303FA04F20B4B8C1053F824309343EE
:10068000084C8D1044F8253023468C1053F8243044
:100690008C07240F00FA04F42343024C8D1044F815
:1006A000253030BD083801400CB500200190009085
:1006B0003448006840F480303249086000BF314857
:1006C000006800F4003000900198401C01900098F0
:1006D00018B90198B0F5A04FF1D12A48006800F48C
:1006E000003010B10120009001E00020009000983F
:1006F000012846D123484030006840F0805021490D
:10070000403108602048006840F440401E490860BD
:100710001C48083000681B4908310860084600681A
:1007200040F4004008600846006840F4A0500860AB
:100730001648091F0860081F006840F08070091FF4
:10074000086000BF0F48006800F000700028F9D072
:1007500040F205700E4908600A480830006820F031
:1007600003000849083108600846006840F00200AC
:10077000086000BF03480830006800F00C0008283B
:10078000F8D10CBD0038024000700040085440070A
:10079000003C0240042808D14FF0E021096941F0F3
:1007A00004014FF0E022116107E04FF0E0210969F8
:1007B00021F004014FF0E022116170477047000002
:1007C00010B51548006840F47000134908601348DC
:1007D000006840F001001149086000200F4908310D
:1007E00008600E4800680E4908400C4908600D4832
:1007F000091D0860081F006820F48020091F086098
:10080000002006490C310860FFF74EFF4FF00060F2
:1008100001498039086010BD88ED00E000380240D1
:10082000FFFFF6FE1030002410B540F225511D48A0
:1008300000F060F810B31B4800F016F9C4B21A4873
:10084000008800F40040C8B91748008800F48040D0
:1008500060B10A2C03D000201349088020E0124820
:10086000008840F400401049088019E00D2C06D1A2
:100870000D48008840F480400B49088010E00A4889
:100880000088C0F30D0009490C5407480088401C3B
:100890000549088008460088C72801DD0020088037
:1008A00010BD000000480040140000201C00002083
:1008B00001F40072B2F5007F00D100BFCA4302808C
:1008C000704721B1828942F40052828104E082891A
:1008D0004DF6FF731A408281704702460020B1F541
:1008E000007F00D100BF13880B400BB1012000E056
:1008F0000020704770B50246002400230025002028
:1009000040F66A16B14200D100BFC1F3421501F0B2
:100910001F03012606FA03F3012D02D19689334005
:1009200006E0022D02D1168A334001E0968A334058
:100930000C12012606FA04F41688344013B10CB1E7
:10094000012000E0002070BDF0B503460024002621
:100950000025002040F66A17B94200D100BF1846B2
:10096000C1F3421401F01F06012707FA06F5012C16
:1009700001D10C3004E0022C01D1103000E0143021
:100980001AB107682F43076002E00768AF430760AA
:10099000F0BD00002DE9FF4705460E460024A146A4
:1009A00000BFA046B08900B100BF2C8A24F4405497
:1009B000F08804432C82AC8941F20C608443B088F7
:1009C00031890843718908430443AC81AC8A24F41B
:1009D0004074B0890443AC826846FFF7CFFD2048DD
:1009E000854202D01F48854202D1DDF80C9001E01B
:1009F000DDF80890A88900F4004040B109EBC90077
:100A000000EB091031684900B0FBF1F707E009EB92
:100A1000C90000EB091031688900B0FBF1F76420D0
:100A2000B7FBF0F004012009642101FB1078A889CC
:100A300000F4004040B1322000EBC800B0FBF1F000
:100A400000F00700044308E0322000EB08106421A6
:100A5000B0FBF1F000F00F0004432C81BDE8FF87EC
:100A6000001001400014014001468888C0F30800CE
:100A70007047C1F308028280704700BFFEE70000A4
:100A8000014A024900F013B8DD0B000818000020ED
:100A900002E008C8121F08C1002AFAD17047704747
:100AA000002001E001C1121F002AFBD170472DE98F
:100AB000F04116460F460446002503E03946B0478C
:100AC000641C6D1C20780028F8D12846BDE8F08110
:100AD00010B504466FF00400FFF75CFEE11704EB6D
:100AE0005171C1F3C701074A11701046007800EB3D
:100AF0004001C1EBC0104FF6FF7101EAC00002498E
:100B0000088010BD100000201200002070B50446BF
:100B10004FF4077094FBF0F0C6B24FF4077094FBEB
:100B2000F0F100FB114085B205E04FF4077000F0D2
:100B30002FF8701EC6B2002EF7D115B1284600F06E
:100B400027F870BD0146114A12784A434FF0E0235E
:100B50005A6100229A611A46126942F001021A6132
:100B600000BF4FF0E022106900F001021AB100F45A
:100B70008032002AF5D04FF0E022126922F0010203
:100B80004FF0E0231A6100229A61704710000020A4
:100B90000146114A12884A434FF0E0235A6100226D
:100BA0009A611A46126942F001021A6100BF4FF0C1
:100BB000E022106900F001021AB100F48032002A2C
:100BC000F5D04FF0E022126922F001024FF0E0234D
:100BD0001A6100229A6170471200002070B5044625
:100BE0000D46E1B20748FFF744FF00BF80210548EA
:100BF000FFF773FE0028F9D06420FFF7A3FF20461B
:100C000070BD000000480040A820FFF761FFFFF71B
:100C100020FBFFF723FCFFF7DBFB4FF4E13000F094
:100C200021F818E04FF400510B48FFF710FCFFF7D4
:100C3000E3FA4FF4C870FFF769FF4FF4005106481C
:100C4000FFF707FCFFF7D0FA4FF4C870FFF75EFF1D
:100C500002A0FFF715FFE5E700040240616263733D
:100C60000000000010B588B0044601210220FFF703
:100C700055FC01218804FFF761FC07220A21244862
:100C8000FFF7C2FB07220B212148FFF7BDFB4FF402
:100C90004060069002208DF81C008DF81D00002099
:100CA0008DF81E0001208DF81F0006A91848FFF7D7
:100CB00047FB02940020ADF80C00ADF80E00ADF833
:100CC0001000ADF814000C20ADF8120002A9114874
:100CD000FFF760FE01210F48FFF7F3FD40210D48AB
:100CE000FFF7E6FD012240F225510A48FFF72CFEEE
:100CF00027208DF8040003208DF805008DF80600EC
:100D000001208DF8070001A8FFF7CAFB08B010BD4D
:100D10000004024000480040380D00080000002098
:100D20001C000000900A0008540D00081C00002060
:100D3000CC040000A00A0008000000000102030427
:100D4000010203040607080900000000000000007B
:040D5000000000009F
:040000050800018965
:00000001FF
